{"contracts/Vault.sol":{"Vault":{"abi":[{"inputs":[{"internalType":"address","name":"_token","type":"address"}],"stateMutability":"nonpayable","type":"constructor"},{"anonymous":false,"inputs":[{"indexed":false,"internalType":"address","name":"","type":"address"},{"indexed":false,"internalType":"address","name":"","type":"address"},{"indexed":false,"internalType":"uint256","name":"","type":"uint256"}],"name":"Deposited","type":"event"},{"anonymous":false,"inputs":[{"indexed":true,"internalType":"address","name":"previousOwner","type":"address"},{"indexed":true,"internalType":"address","name":"newOwner","type":"address"}],"name":"OwnershipTransferred","type":"event"},{"anonymous":false,"inputs":[{"indexed":false,"internalType":"address","name":"","type":"address"},{"indexed":false,"internalType":"uint256","name":"","type":"uint256"}],"name":"Withdrawn","type":"event"},{"inputs":[{"internalType":"uint256","name":"_amount","type":"uint256"}],"name":"deposit","outputs":[],"stateMutability":"nonpayable","type":"function"},{"inputs":[],"name":"max","outputs":[{"internalType":"address","name":"","type":"address"},{"internalType":"address","name":"","type":"address"}],"stateMutability":"view","type":"function"},{"inputs":[],"name":"owner","outputs":[{"internalType":"address","name":"","type":"address"}],"stateMutability":"view","type":"function"},{"inputs":[],"name":"renounceOwnership","outputs":[],"stateMutability":"nonpayable","type":"function"},{"inputs":[],"name":"token","outputs":[{"internalType":"address","name":"","type":"address"}],"stateMutability":"view","type":"function"},{"inputs":[{"internalType":"address","name":"newOwner","type":"address"}],"name":"transferOwnership","outputs":[],"stateMutability":"nonpayable","type":"function"},{"inputs":[{"internalType":"address","name":"","type":"address"}],"name":"userIndex","outputs":[{"internalType":"uint256","name":"","type":"uint256"}],"stateMutability":"view","type":"function"},{"inputs":[{"internalType":"uint256","name":"","type":"uint256"}],"name":"userInfo","outputs":[{"internalType":"address","name":"wallet","type":"address"},{"internalType":"uint256","name":"amount","type":"uint256"}],"stateMutability":"view","type":"function"},{"inputs":[{"internalType":"uint256","name":"_amount","type":"uint256"}],"name":"withdraw","outputs":[],"stateMutability":"nonpayable","type":"function"}],"devdoc":{"kind":"dev","methods":{"owner()":{"details":"Returns the address of the current owner."},"renounceOwnership()":{"details":"Leaves the contract without owner. It will not be possible to call `onlyOwner` functions anymore. Can only be called by the current owner. NOTE: Renouncing ownership will leave the contract without an owner, thereby removing any functionality that is only available to the owner."},"transferOwnership(address)":{"details":"Transfers ownership of the contract to a new account (`newOwner`). Can only be called by the current owner."}},"version":1},"evm":{"bytecode":{"linkReferences":{},"object":"60a06040523480156200001157600080fd5b506040516200161238038062001612833981810160405281019062000037919062000203565b620000576200004b620000ca60201b60201c565b620000d260201b60201c565b6200007367524c3371c2ae7b4860c01b6200019660201b60201c565b6200008f67b9e5f9c53bb9461460c01b6200019660201b60201c565b8073ffffffffffffffffffffffffffffffffffffffff1660808173ffffffffffffffffffffffffffffffffffffffff16815250505062000235565b600033905090565b60008060009054906101000a900473ffffffffffffffffffffffffffffffffffffffff169050816000806101000a81548173ffffffffffffffffffffffffffffffffffffffff021916908373ffffffffffffffffffffffffffffffffffffffff1602179055508173ffffffffffffffffffffffffffffffffffffffff168173ffffffffffffffffffffffffffffffffffffffff167f8be0079c531659141344cd1fd0a4f28419497f9722a3daafe3b4186f6b6457e060405160405180910390a35050565b50565b600080fd5b600073ffffffffffffffffffffffffffffffffffffffff82169050919050565b6000620001cb826200019e565b9050919050565b620001dd81620001be565b8114620001e957600080fd5b50565b600081519050620001fd81620001d2565b92915050565b6000602082840312156200021c576200021b62000199565b5b60006200022c84828501620001ec565b91505092915050565b6080516113b36200025f6000396000818161040f015281816108970152610c8e01526113b36000f3fe608060405234801561001057600080fd5b50600436106100935760003560e01c80638da5cb5b116100665780638da5cb5b1461010e578063b6b55f251461012c578063c96679fe14610148578063f2fde38b14610178578063fc0c546a1461019457610093565b80632e1a7d4d1461009857806351d70bc4146100b45780636ac5db19146100e5578063715018a614610104575b600080fd5b6100b260048036038101906100ad9190610e68565b6101b2565b005b6100ce60048036038101906100c99190610e68565b610512565b6040516100dc929190610ee5565b60405180910390f35b6100ed610566565b6040516100fb929190610f0e565b60405180910390f35b61010c61081c565b005b610116610830565b6040516101239190610f37565b60405180910390f35b61014660048036038101906101419190610e68565b610859565b005b610162600480360381019061015d9190610f7e565b610bf1565b60405161016f9190610fab565b60405180910390f35b610192600480360381019061018d9190610f7e565b610c09565b005b61019c610c8c565b6040516101a99190610f37565b60405180910390f35b6101c6673c3d1f0b28e6825b60c01b610cb0565b6101da6781853cfb9dba18aa60c01b610cb0565b6101ee67ec13bd7ef14353ef60c01b610cb0565b6000600160003373ffffffffffffffffffffffffffffffffffffffff1673ffffffffffffffffffffffffffffffffffffffff16815260200190815260200160002054905061024667c59c06800872803060c01b610cb0565b61025a67c718a20b5c46e12460c01b610cb0565b61026e67ae35b2da8639e95460c01b610cb0565b600081036102b1576040517f08c379a00000000000000000000000000000000000000000000000000000000081526004016102a890611023565b60405180910390fd5b6102c567cf854689c1a3159e60c01b610cb0565b6102d9670f6324415a30537b60c01b610cb0565b6102ed673d52113df375fa5d60c01b610cb0565b600060026001836102fe9190611072565b8154811061030f5761030e6110a6565b5b9060005260206000209060020201905061033367de41abcba3e62fd560c01b610cb0565b610347676092391e859e7d2560c01b610cb0565b61035b67919f4949413c8f6560c01b610cb0565b82816001015410156103a2576040517f08c379a000000000000000000000000000000000000000000000000000000000815260040161039990611147565b60405180910390fd5b6103b6677c66c358ef810a0a60c01b610cb0565b6103ca67fb94a3356e50c14060c01b610cb0565b828160010160008282546103de9190611072565b925050819055506103f967328ffca30731bd4b60c01b610cb0565b61040d679c653ffbdc502e0f60c01b610cb0565b7f000000000000000000000000000000000000000000000000000000000000000073ffffffffffffffffffffffffffffffffffffffff1663a9059cbb33856040518363ffffffff1660e01b8152600401610468929190610ee5565b6020604051808303816000875af1158015610487573d6000803e3d6000fd5b505050506040513d601f19601f820116820180604052508101906104ab919061119f565b506104c0670c9930e4654ebe9060c01b610cb0565b6104d46781a4173d618c3bcb60c01b610cb0565b7f7084f5476618d8e60b11ef0d7d3f06914655adb8793e28ff7f018d4c76d505d53384604051610505929190610ee5565b60405180910390a1505050565b6002818154811061052257600080fd5b90600052602060002090600202016000915090508060000160009054906101000a900473ffffffffffffffffffffffffffffffffffffffff16908060010154905082565b60008061057d67a71471a4f9996e8f60c01b610cb0565b61059167cec79149333f05b060c01b610cb0565b6105a567e26c4ed4c5c4e70260c01b610cb0565b6105ad610dfd565b6105c1679a78281bb1431d7260c01b610cb0565b6105d567c0f0e8449172483f60c01b610cb0565b6105dd610dfd565b6105f1674658fef52e2882cf60c01b610cb0565b610605675380d174bcdaea1a60c01b610cb0565b60005b6002805490508110156107df5761062967a9e80d0d39c9181160c01b610cb0565b61063d674e07f9c2c41fbe9960c01b610cb0565b600060028281548110610653576106526110a6565b5b90600052602060002090600202016040518060400160405290816000820160009054906101000a900473ffffffffffffffffffffffffffffffffffffffff1673ffffffffffffffffffffffffffffffffffffffff1673ffffffffffffffffffffffffffffffffffffffff16815260200160018201548152505090506106e267d32bebfdc04f2b9d60c01b610cb0565b6106f6672b5c4ea9292a95f560c01b610cb0565b83602001518160200151111561074d5761071a6773a7f0fe1265a2bc60c01b610cb0565b61072e67d23b74dbf6d7e5fc60c01b610cb0565b83925061074567bf390cc54659e77260c01b610cb0565b8093506107cb565b61076167642f20b443e9579c60c01b610cb0565b61077567c0f87aac0ff2c6c460c01b610cb0565b8260200151816020015111156107b557610799671a1d283eb4c8858860c01b610cb0565b6107ad67bca7e1eadbf71eef60c01b610cb0565b8092506107ca565b6107c9679fd37f906f2cae4260c01b610cb0565b5b5b5080806107d7906111cc565b915050610608565b506107f467f0e0bb299668ff7860c01b610cb0565b61080867ca7dcd2d667c91b260c01b610cb0565b816000015181600001519350935050509091565b610824610cb3565b61082e6000610d31565b565b60008060009054906101000a900473ffffffffffffffffffffffffffffffffffffffff16905090565b61086d67d21563588dbe708360c01b610cb0565b6108816757ccc2c810d8718a60c01b610cb0565b6108956779fdc249f5e2a31160c01b610cb0565b7f000000000000000000000000000000000000000000000000000000000000000073ffffffffffffffffffffffffffffffffffffffff166323b872dd3330846040518463ffffffff1660e01b81526004016108f293929190611214565b6020604051808303816000875af1158015610911573d6000803e3d6000fd5b505050506040513d601f19601f82011682018060405250810190610935919061119f565b5061094a67e9701d5e436687cb60c01b610cb0565b61095e674b17bb080130e27e60c01b610cb0565b6000600160003373ffffffffffffffffffffffffffffffffffffffff1673ffffffffffffffffffffffffffffffffffffffff1681526020019081526020016000205490506109b667c39d6dfe4af3578960c01b610cb0565b6109ca676d283761a325887b60c01b610cb0565b60008103610b19576109e667367806bc0aad478060c01b610cb0565b6109fa67e03495509359b99d60c01b610cb0565b610a0e677423e45589d1e43a60c01b610cb0565b600260405180604001604052803373ffffffffffffffffffffffffffffffffffffffff16815260200184815250908060018154018082558091505060019003906000526020600020906002020160009091909190915060008201518160000160006101000a81548173ffffffffffffffffffffffffffffffffffffffff021916908373ffffffffffffffffffffffffffffffffffffffff160217905550602082015181600101555050610acb673f1ee8fe79263c9160c01b610cb0565b600280549050600160003373ffffffffffffffffffffffffffffffffffffffff1673ffffffffffffffffffffffffffffffffffffffff16815260200190815260200160002081905550610b8a565b610b2d675854579d6188dd1c60c01b610cb0565b610b4167d6346f270f0df6c260c01b610cb0565b816002600183610b519190611072565b81548110610b6257610b616110a6565b5b90600052602060002090600202016001016000828254610b82919061124b565b925050819055505b610b9e67222c53a21c217e1560c01b610cb0565b610bb267aa8fbe04be29893160c01b610cb0565b7f8752a472e571a816aea92eec8dae9baf628e840f4929fbcc2d155e6233ff68a7333084604051610be593929190611214565b60405180910390a15050565b60016020528060005260406000206000915090505481565b610c11610cb3565b600073ffffffffffffffffffffffffffffffffffffffff168173ffffffffffffffffffffffffffffffffffffffff1603610c80576040517f08c379a0000000000000000000000000000000000000000000000000000000008152600401610c77906112f1565b60405180910390fd5b610c8981610d31565b50565b7f000000000000000000000000000000000000000000000000000000000000000081565b50565b610cbb610df5565b73ffffffffffffffffffffffffffffffffffffffff16610cd9610830565b73ffffffffffffffffffffffffffffffffffffffff1614610d2f576040517f08c379a0000000000000000000000000000000000000000000000000000000008152600401610d269061135d565b60405180910390fd5b565b60008060009054906101000a900473ffffffffffffffffffffffffffffffffffffffff169050816000806101000a81548173ffffffffffffffffffffffffffffffffffffffff021916908373ffffffffffffffffffffffffffffffffffffffff1602179055508173ffffffffffffffffffffffffffffffffffffffff168173ffffffffffffffffffffffffffffffffffffffff167f8be0079c531659141344cd1fd0a4f28419497f9722a3daafe3b4186f6b6457e060405160405180910390a35050565b600033905090565b6040518060400160405280600073ffffffffffffffffffffffffffffffffffffffff168152602001600081525090565b600080fd5b6000819050919050565b610e4581610e32565b8114610e5057600080fd5b50565b600081359050610e6281610e3c565b92915050565b600060208284031215610e7e57610e7d610e2d565b5b6000610e8c84828501610e53565b91505092915050565b600073ffffffffffffffffffffffffffffffffffffffff82169050919050565b6000610ec082610e95565b9050919050565b610ed081610eb5565b82525050565b610edf81610e32565b82525050565b6000604082019050610efa6000830185610ec7565b610f076020830184610ed6565b9392505050565b6000604082019050610f236000830185610ec7565b610f306020830184610ec7565b9392505050565b6000602082019050610f4c6000830184610ec7565b92915050565b610f5b81610eb5565b8114610f6657600080fd5b50565b600081359050610f7881610f52565b92915050565b600060208284031215610f9457610f93610e2d565b5b6000610fa284828501610f69565b91505092915050565b6000602082019050610fc06000830184610ed6565b92915050565b600082825260208201905092915050565b7f77697468647261773a206e6f74206465706f7369746564207965740000000000600082015250565b600061100d601b83610fc6565b915061101882610fd7565b602082019050919050565b6000602082019050818103600083015261103c81611000565b9050919050565b7f4e487b7100000000000000000000000000000000000000000000000000000000600052601160045260246000fd5b600061107d82610e32565b915061108883610e32565b92508282039050818111156110a05761109f611043565b5b92915050565b7f4e487b7100000000000000000000000000000000000000000000000000000000600052603260045260246000fd5b7f57697468647261773a206e6f7420656e6f75676820746f6b656e7320746f207760008201527f6974686472617700000000000000000000000000000000000000000000000000602082015250565b6000611131602783610fc6565b915061113c826110d5565b604082019050919050565b6000602082019050818103600083015261116081611124565b9050919050565b60008115159050919050565b61117c81611167565b811461118757600080fd5b50565b60008151905061119981611173565b92915050565b6000602082840312156111b5576111b4610e2d565b5b60006111c38482850161118a565b91505092915050565b60006111d782610e32565b91507fffffffffffffffffffffffffffffffffffffffffffffffffffffffffffffffff820361120957611208611043565b5b600182019050919050565b60006060820190506112296000830186610ec7565b6112366020830185610ec7565b6112436040830184610ed6565b949350505050565b600061125682610e32565b915061126183610e32565b925082820190508082111561127957611278611043565b5b92915050565b7f4f776e61626c653a206e6577206f776e657220697320746865207a65726f206160008201527f6464726573730000000000000000000000000000000000000000000000000000602082015250565b60006112db602683610fc6565b91506112e68261127f565b604082019050919050565b6000602082019050818103600083015261130a816112ce565b9050919050565b7f4f776e61626c653a2063616c6c6572206973206e6f7420746865206f776e6572600082015250565b6000611347602083610fc6565b915061135282611311565b602082019050919050565b600060208201905081810360008301526113768161133a565b905091905056fea264697066735822122005dca2043d13cda5b0bfb9ae1f91dae1effc0c2ab650b0b03611fa8d24b7332664736f6c63430008100033","opcodes":"PUSH1 0xA0 PUSH1 0x40 MSTORE CALLVALUE DUP1 ISZERO PUSH3 0x11 JUMPI PUSH1 0x0 DUP1 REVERT JUMPDEST POP PUSH1 0x40 MLOAD PUSH3 0x1612 CODESIZE SUB DUP1 PUSH3 0x1612 DUP4 CODECOPY DUP2 DUP2 ADD PUSH1 0x40 MSTORE DUP2 ADD SWAP1 PUSH3 0x37 SWAP2 SWAP1 PUSH3 0x203 JUMP JUMPDEST PUSH3 0x57 PUSH3 0x4B PUSH3 0xCA PUSH1 0x20 SHL PUSH1 0x20 SHR JUMP JUMPDEST PUSH3 0xD2 PUSH1 0x20 SHL PUSH1 0x20 SHR JUMP JUMPDEST PUSH3 0x73 PUSH8 0x524C3371C2AE7B48 PUSH1 0xC0 SHL PUSH3 0x196 PUSH1 0x20 SHL PUSH1 0x20 SHR JUMP JUMPDEST PUSH3 0x8F PUSH8 0xB9E5F9C53BB94614 PUSH1 0xC0 SHL PUSH3 0x196 PUSH1 0x20 SHL PUSH1 0x20 SHR JUMP JUMPDEST DUP1 PUSH20 0xFFFFFFFFFFFFFFFFFFFFFFFFFFFFFFFFFFFFFFFF AND PUSH1 0x80 DUP2 PUSH20 0xFFFFFFFFFFFFFFFFFFFFFFFFFFFFFFFFFFFFFFFF AND DUP2 MSTORE POP POP POP PUSH3 0x235 JUMP JUMPDEST PUSH1 0x0 CALLER SWAP1 POP SWAP1 JUMP JUMPDEST PUSH1 0x0 DUP1 PUSH1 0x0 SWAP1 SLOAD SWAP1 PUSH2 0x100 EXP SWAP1 DIV PUSH20 0xFFFFFFFFFFFFFFFFFFFFFFFFFFFFFFFFFFFFFFFF AND SWAP1 POP DUP2 PUSH1 0x0 DUP1 PUSH2 0x100 EXP DUP2 SLOAD DUP2 PUSH20 0xFFFFFFFFFFFFFFFFFFFFFFFFFFFFFFFFFFFFFFFF MUL NOT AND SWAP1 DUP4 PUSH20 0xFFFFFFFFFFFFFFFFFFFFFFFFFFFFFFFFFFFFFFFF AND MUL OR SWAP1 SSTORE POP DUP2 PUSH20 0xFFFFFFFFFFFFFFFFFFFFFFFFFFFFFFFFFFFFFFFF AND DUP2 PUSH20 0xFFFFFFFFFFFFFFFFFFFFFFFFFFFFFFFFFFFFFFFF AND PUSH32 0x8BE0079C531659141344CD1FD0A4F28419497F9722A3DAAFE3B4186F6B6457E0 PUSH1 0x40 MLOAD PUSH1 0x40 MLOAD DUP1 SWAP2 SUB SWAP1 LOG3 POP POP JUMP JUMPDEST POP JUMP JUMPDEST PUSH1 0x0 DUP1 REVERT JUMPDEST PUSH1 0x0 PUSH20 0xFFFFFFFFFFFFFFFFFFFFFFFFFFFFFFFFFFFFFFFF DUP3 AND SWAP1 POP SWAP2 SWAP1 POP JUMP JUMPDEST PUSH1 0x0 PUSH3 0x1CB DUP3 PUSH3 0x19E JUMP JUMPDEST SWAP1 POP SWAP2 SWAP1 POP JUMP JUMPDEST PUSH3 0x1DD DUP2 PUSH3 0x1BE JUMP JUMPDEST DUP2 EQ PUSH3 0x1E9 JUMPI PUSH1 0x0 DUP1 REVERT JUMPDEST POP JUMP JUMPDEST PUSH1 0x0 DUP2 MLOAD SWAP1 POP PUSH3 0x1FD DUP2 PUSH3 0x1D2 JUMP JUMPDEST SWAP3 SWAP2 POP POP JUMP JUMPDEST PUSH1 0x0 PUSH1 0x20 DUP3 DUP5 SUB SLT ISZERO PUSH3 0x21C JUMPI PUSH3 0x21B PUSH3 0x199 JUMP JUMPDEST JUMPDEST PUSH1 0x0 PUSH3 0x22C DUP5 DUP3 DUP6 ADD PUSH3 0x1EC JUMP JUMPDEST SWAP2 POP POP SWAP3 SWAP2 POP POP JUMP JUMPDEST PUSH1 0x80 MLOAD PUSH2 0x13B3 PUSH3 0x25F PUSH1 0x0 CODECOPY PUSH1 0x0 DUP2 DUP2 PUSH2 0x40F ADD MSTORE DUP2 DUP2 PUSH2 0x897 ADD MSTORE PUSH2 0xC8E ADD MSTORE PUSH2 0x13B3 PUSH1 0x0 RETURN INVALID PUSH1 0x80 PUSH1 0x40 MSTORE CALLVALUE DUP1 ISZERO PUSH2 0x10 JUMPI PUSH1 0x0 DUP1 REVERT JUMPDEST POP PUSH1 0x4 CALLDATASIZE LT PUSH2 0x93 JUMPI PUSH1 0x0 CALLDATALOAD PUSH1 0xE0 SHR DUP1 PUSH4 0x8DA5CB5B GT PUSH2 0x66 JUMPI DUP1 PUSH4 0x8DA5CB5B EQ PUSH2 0x10E JUMPI DUP1 PUSH4 0xB6B55F25 EQ PUSH2 0x12C JUMPI DUP1 PUSH4 0xC96679FE EQ PUSH2 0x148 JUMPI DUP1 PUSH4 0xF2FDE38B EQ PUSH2 0x178 JUMPI DUP1 PUSH4 0xFC0C546A EQ PUSH2 0x194 JUMPI PUSH2 0x93 JUMP JUMPDEST DUP1 PUSH4 0x2E1A7D4D EQ PUSH2 0x98 JUMPI DUP1 PUSH4 0x51D70BC4 EQ PUSH2 0xB4 JUMPI DUP1 PUSH4 0x6AC5DB19 EQ PUSH2 0xE5 JUMPI DUP1 PUSH4 0x715018A6 EQ PUSH2 0x104 JUMPI JUMPDEST PUSH1 0x0 DUP1 REVERT JUMPDEST PUSH2 0xB2 PUSH1 0x4 DUP1 CALLDATASIZE SUB DUP2 ADD SWAP1 PUSH2 0xAD SWAP2 SWAP1 PUSH2 0xE68 JUMP JUMPDEST PUSH2 0x1B2 JUMP JUMPDEST STOP JUMPDEST PUSH2 0xCE PUSH1 0x4 DUP1 CALLDATASIZE SUB DUP2 ADD SWAP1 PUSH2 0xC9 SWAP2 SWAP1 PUSH2 0xE68 JUMP JUMPDEST PUSH2 0x512 JUMP JUMPDEST PUSH1 0x40 MLOAD PUSH2 0xDC SWAP3 SWAP2 SWAP1 PUSH2 0xEE5 JUMP JUMPDEST PUSH1 0x40 MLOAD DUP1 SWAP2 SUB SWAP1 RETURN JUMPDEST PUSH2 0xED PUSH2 0x566 JUMP JUMPDEST PUSH1 0x40 MLOAD PUSH2 0xFB SWAP3 SWAP2 SWAP1 PUSH2 0xF0E JUMP JUMPDEST PUSH1 0x40 MLOAD DUP1 SWAP2 SUB SWAP1 RETURN JUMPDEST PUSH2 0x10C PUSH2 0x81C JUMP JUMPDEST STOP JUMPDEST PUSH2 0x116 PUSH2 0x830 JUMP JUMPDEST PUSH1 0x40 MLOAD PUSH2 0x123 SWAP2 SWAP1 PUSH2 0xF37 JUMP JUMPDEST PUSH1 0x40 MLOAD DUP1 SWAP2 SUB SWAP1 RETURN JUMPDEST PUSH2 0x146 PUSH1 0x4 DUP1 CALLDATASIZE SUB DUP2 ADD SWAP1 PUSH2 0x141 SWAP2 SWAP1 PUSH2 0xE68 JUMP JUMPDEST PUSH2 0x859 JUMP JUMPDEST STOP JUMPDEST PUSH2 0x162 PUSH1 0x4 DUP1 CALLDATASIZE SUB DUP2 ADD SWAP1 PUSH2 0x15D SWAP2 SWAP1 PUSH2 0xF7E JUMP JUMPDEST PUSH2 0xBF1 JUMP JUMPDEST PUSH1 0x40 MLOAD PUSH2 0x16F SWAP2 SWAP1 PUSH2 0xFAB JUMP JUMPDEST PUSH1 0x40 MLOAD DUP1 SWAP2 SUB SWAP1 RETURN JUMPDEST PUSH2 0x192 PUSH1 0x4 DUP1 CALLDATASIZE SUB DUP2 ADD SWAP1 PUSH2 0x18D SWAP2 SWAP1 PUSH2 0xF7E JUMP JUMPDEST PUSH2 0xC09 JUMP JUMPDEST STOP JUMPDEST PUSH2 0x19C PUSH2 0xC8C JUMP JUMPDEST PUSH1 0x40 MLOAD PUSH2 0x1A9 SWAP2 SWAP1 PUSH2 0xF37 JUMP JUMPDEST PUSH1 0x40 MLOAD DUP1 SWAP2 SUB SWAP1 RETURN JUMPDEST PUSH2 0x1C6 PUSH8 0x3C3D1F0B28E6825B PUSH1 0xC0 SHL PUSH2 0xCB0 JUMP JUMPDEST PUSH2 0x1DA PUSH8 0x81853CFB9DBA18AA PUSH1 0xC0 SHL PUSH2 0xCB0 JUMP JUMPDEST PUSH2 0x1EE PUSH8 0xEC13BD7EF14353EF PUSH1 0xC0 SHL PUSH2 0xCB0 JUMP JUMPDEST PUSH1 0x0 PUSH1 0x1 PUSH1 0x0 CALLER PUSH20 0xFFFFFFFFFFFFFFFFFFFFFFFFFFFFFFFFFFFFFFFF AND PUSH20 0xFFFFFFFFFFFFFFFFFFFFFFFFFFFFFFFFFFFFFFFF AND DUP2 MSTORE PUSH1 0x20 ADD SWAP1 DUP2 MSTORE PUSH1 0x20 ADD PUSH1 0x0 KECCAK256 SLOAD SWAP1 POP PUSH2 0x246 PUSH8 0xC59C068008728030 PUSH1 0xC0 SHL PUSH2 0xCB0 JUMP JUMPDEST PUSH2 0x25A PUSH8 0xC718A20B5C46E124 PUSH1 0xC0 SHL PUSH2 0xCB0 JUMP JUMPDEST PUSH2 0x26E PUSH8 0xAE35B2DA8639E954 PUSH1 0xC0 SHL PUSH2 0xCB0 JUMP JUMPDEST PUSH1 0x0 DUP2 SUB PUSH2 0x2B1 JUMPI PUSH1 0x40 MLOAD PUSH32 0x8C379A000000000000000000000000000000000000000000000000000000000 DUP2 MSTORE PUSH1 0x4 ADD PUSH2 0x2A8 SWAP1 PUSH2 0x1023 JUMP JUMPDEST PUSH1 0x40 MLOAD DUP1 SWAP2 SUB SWAP1 REVERT JUMPDEST PUSH2 0x2C5 PUSH8 0xCF854689C1A3159E PUSH1 0xC0 SHL PUSH2 0xCB0 JUMP JUMPDEST PUSH2 0x2D9 PUSH8 0xF6324415A30537B PUSH1 0xC0 SHL PUSH2 0xCB0 JUMP JUMPDEST PUSH2 0x2ED PUSH8 0x3D52113DF375FA5D PUSH1 0xC0 SHL PUSH2 0xCB0 JUMP JUMPDEST PUSH1 0x0 PUSH1 0x2 PUSH1 0x1 DUP4 PUSH2 0x2FE SWAP2 SWAP1 PUSH2 0x1072 JUMP JUMPDEST DUP2 SLOAD DUP2 LT PUSH2 0x30F JUMPI PUSH2 0x30E PUSH2 0x10A6 JUMP JUMPDEST JUMPDEST SWAP1 PUSH1 0x0 MSTORE PUSH1 0x20 PUSH1 0x0 KECCAK256 SWAP1 PUSH1 0x2 MUL ADD SWAP1 POP PUSH2 0x333 PUSH8 0xDE41ABCBA3E62FD5 PUSH1 0xC0 SHL PUSH2 0xCB0 JUMP JUMPDEST PUSH2 0x347 PUSH8 0x6092391E859E7D25 PUSH1 0xC0 SHL PUSH2 0xCB0 JUMP JUMPDEST PUSH2 0x35B PUSH8 0x919F4949413C8F65 PUSH1 0xC0 SHL PUSH2 0xCB0 JUMP JUMPDEST DUP3 DUP2 PUSH1 0x1 ADD SLOAD LT ISZERO PUSH2 0x3A2 JUMPI PUSH1 0x40 MLOAD PUSH32 0x8C379A000000000000000000000000000000000000000000000000000000000 DUP2 MSTORE PUSH1 0x4 ADD PUSH2 0x399 SWAP1 PUSH2 0x1147 JUMP JUMPDEST PUSH1 0x40 MLOAD DUP1 SWAP2 SUB SWAP1 REVERT JUMPDEST PUSH2 0x3B6 PUSH8 0x7C66C358EF810A0A PUSH1 0xC0 SHL PUSH2 0xCB0 JUMP JUMPDEST PUSH2 0x3CA PUSH8 0xFB94A3356E50C140 PUSH1 0xC0 SHL PUSH2 0xCB0 JUMP JUMPDEST DUP3 DUP2 PUSH1 0x1 ADD PUSH1 0x0 DUP3 DUP3 SLOAD PUSH2 0x3DE SWAP2 SWAP1 PUSH2 0x1072 JUMP JUMPDEST SWAP3 POP POP DUP2 SWAP1 SSTORE POP PUSH2 0x3F9 PUSH8 0x328FFCA30731BD4B PUSH1 0xC0 SHL PUSH2 0xCB0 JUMP JUMPDEST PUSH2 0x40D PUSH8 0x9C653FFBDC502E0F PUSH1 0xC0 SHL PUSH2 0xCB0 JUMP JUMPDEST PUSH32 0x0 PUSH20 0xFFFFFFFFFFFFFFFFFFFFFFFFFFFFFFFFFFFFFFFF AND PUSH4 0xA9059CBB CALLER DUP6 PUSH1 0x40 MLOAD DUP4 PUSH4 0xFFFFFFFF AND PUSH1 0xE0 SHL DUP2 MSTORE PUSH1 0x4 ADD PUSH2 0x468 SWAP3 SWAP2 SWAP1 PUSH2 0xEE5 JUMP JUMPDEST PUSH1 0x20 PUSH1 0x40 MLOAD DUP1 DUP4 SUB DUP2 PUSH1 0x0 DUP8 GAS CALL ISZERO DUP1 ISZERO PUSH2 0x487 JUMPI RETURNDATASIZE PUSH1 0x0 DUP1 RETURNDATACOPY RETURNDATASIZE PUSH1 0x0 REVERT JUMPDEST POP POP POP POP PUSH1 0x40 MLOAD RETURNDATASIZE PUSH1 0x1F NOT PUSH1 0x1F DUP3 ADD AND DUP3 ADD DUP1 PUSH1 0x40 MSTORE POP DUP2 ADD SWAP1 PUSH2 0x4AB SWAP2 SWAP1 PUSH2 0x119F JUMP JUMPDEST POP PUSH2 0x4C0 PUSH8 0xC9930E4654EBE90 PUSH1 0xC0 SHL PUSH2 0xCB0 JUMP JUMPDEST PUSH2 0x4D4 PUSH8 0x81A4173D618C3BCB PUSH1 0xC0 SHL PUSH2 0xCB0 JUMP JUMPDEST PUSH32 0x7084F5476618D8E60B11EF0D7D3F06914655ADB8793E28FF7F018D4C76D505D5 CALLER DUP5 PUSH1 0x40 MLOAD PUSH2 0x505 SWAP3 SWAP2 SWAP1 PUSH2 0xEE5 JUMP JUMPDEST PUSH1 0x40 MLOAD DUP1 SWAP2 SUB SWAP1 LOG1 POP POP POP JUMP JUMPDEST PUSH1 0x2 DUP2 DUP2 SLOAD DUP2 LT PUSH2 0x522 JUMPI PUSH1 0x0 DUP1 REVERT JUMPDEST SWAP1 PUSH1 0x0 MSTORE PUSH1 0x20 PUSH1 0x0 KECCAK256 SWAP1 PUSH1 0x2 MUL ADD PUSH1 0x0 SWAP2 POP SWAP1 POP DUP1 PUSH1 0x0 ADD PUSH1 0x0 SWAP1 SLOAD SWAP1 PUSH2 0x100 EXP SWAP1 DIV PUSH20 0xFFFFFFFFFFFFFFFFFFFFFFFFFFFFFFFFFFFFFFFF AND SWAP1 DUP1 PUSH1 0x1 ADD SLOAD SWAP1 POP DUP3 JUMP JUMPDEST PUSH1 0x0 DUP1 PUSH2 0x57D PUSH8 0xA71471A4F9996E8F PUSH1 0xC0 SHL PUSH2 0xCB0 JUMP JUMPDEST PUSH2 0x591 PUSH8 0xCEC79149333F05B0 PUSH1 0xC0 SHL PUSH2 0xCB0 JUMP JUMPDEST PUSH2 0x5A5 PUSH8 0xE26C4ED4C5C4E702 PUSH1 0xC0 SHL PUSH2 0xCB0 JUMP JUMPDEST PUSH2 0x5AD PUSH2 0xDFD JUMP JUMPDEST PUSH2 0x5C1 PUSH8 0x9A78281BB1431D72 PUSH1 0xC0 SHL PUSH2 0xCB0 JUMP JUMPDEST PUSH2 0x5D5 PUSH8 0xC0F0E8449172483F PUSH1 0xC0 SHL PUSH2 0xCB0 JUMP JUMPDEST PUSH2 0x5DD PUSH2 0xDFD JUMP JUMPDEST PUSH2 0x5F1 PUSH8 0x4658FEF52E2882CF PUSH1 0xC0 SHL PUSH2 0xCB0 JUMP JUMPDEST PUSH2 0x605 PUSH8 0x5380D174BCDAEA1A PUSH1 0xC0 SHL PUSH2 0xCB0 JUMP JUMPDEST PUSH1 0x0 JUMPDEST PUSH1 0x2 DUP1 SLOAD SWAP1 POP DUP2 LT ISZERO PUSH2 0x7DF JUMPI PUSH2 0x629 PUSH8 0xA9E80D0D39C91811 PUSH1 0xC0 SHL PUSH2 0xCB0 JUMP JUMPDEST PUSH2 0x63D PUSH8 0x4E07F9C2C41FBE99 PUSH1 0xC0 SHL PUSH2 0xCB0 JUMP JUMPDEST PUSH1 0x0 PUSH1 0x2 DUP3 DUP2 SLOAD DUP2 LT PUSH2 0x653 JUMPI PUSH2 0x652 PUSH2 0x10A6 JUMP JUMPDEST JUMPDEST SWAP1 PUSH1 0x0 MSTORE PUSH1 0x20 PUSH1 0x0 KECCAK256 SWAP1 PUSH1 0x2 MUL ADD PUSH1 0x40 MLOAD DUP1 PUSH1 0x40 ADD PUSH1 0x40 MSTORE SWAP1 DUP2 PUSH1 0x0 DUP3 ADD PUSH1 0x0 SWAP1 SLOAD SWAP1 PUSH2 0x100 EXP SWAP1 DIV PUSH20 0xFFFFFFFFFFFFFFFFFFFFFFFFFFFFFFFFFFFFFFFF AND PUSH20 0xFFFFFFFFFFFFFFFFFFFFFFFFFFFFFFFFFFFFFFFF AND PUSH20 0xFFFFFFFFFFFFFFFFFFFFFFFFFFFFFFFFFFFFFFFF AND DUP2 MSTORE PUSH1 0x20 ADD PUSH1 0x1 DUP3 ADD SLOAD DUP2 MSTORE POP POP SWAP1 POP PUSH2 0x6E2 PUSH8 0xD32BEBFDC04F2B9D PUSH1 0xC0 SHL PUSH2 0xCB0 JUMP JUMPDEST PUSH2 0x6F6 PUSH8 0x2B5C4EA9292A95F5 PUSH1 0xC0 SHL PUSH2 0xCB0 JUMP JUMPDEST DUP4 PUSH1 0x20 ADD MLOAD DUP2 PUSH1 0x20 ADD MLOAD GT ISZERO PUSH2 0x74D JUMPI PUSH2 0x71A PUSH8 0x73A7F0FE1265A2BC PUSH1 0xC0 SHL PUSH2 0xCB0 JUMP JUMPDEST PUSH2 0x72E PUSH8 0xD23B74DBF6D7E5FC PUSH1 0xC0 SHL PUSH2 0xCB0 JUMP JUMPDEST DUP4 SWAP3 POP PUSH2 0x745 PUSH8 0xBF390CC54659E772 PUSH1 0xC0 SHL PUSH2 0xCB0 JUMP JUMPDEST DUP1 SWAP4 POP PUSH2 0x7CB JUMP JUMPDEST PUSH2 0x761 PUSH8 0x642F20B443E9579C PUSH1 0xC0 SHL PUSH2 0xCB0 JUMP JUMPDEST PUSH2 0x775 PUSH8 0xC0F87AAC0FF2C6C4 PUSH1 0xC0 SHL PUSH2 0xCB0 JUMP JUMPDEST DUP3 PUSH1 0x20 ADD MLOAD DUP2 PUSH1 0x20 ADD MLOAD GT ISZERO PUSH2 0x7B5 JUMPI PUSH2 0x799 PUSH8 0x1A1D283EB4C88588 PUSH1 0xC0 SHL PUSH2 0xCB0 JUMP JUMPDEST PUSH2 0x7AD PUSH8 0xBCA7E1EADBF71EEF PUSH1 0xC0 SHL PUSH2 0xCB0 JUMP JUMPDEST DUP1 SWAP3 POP PUSH2 0x7CA JUMP JUMPDEST PUSH2 0x7C9 PUSH8 0x9FD37F906F2CAE42 PUSH1 0xC0 SHL PUSH2 0xCB0 JUMP JUMPDEST JUMPDEST JUMPDEST POP DUP1 DUP1 PUSH2 0x7D7 SWAP1 PUSH2 0x11CC JUMP JUMPDEST SWAP2 POP POP PUSH2 0x608 JUMP JUMPDEST POP PUSH2 0x7F4 PUSH8 0xF0E0BB299668FF78 PUSH1 0xC0 SHL PUSH2 0xCB0 JUMP JUMPDEST PUSH2 0x808 PUSH8 0xCA7DCD2D667C91B2 PUSH1 0xC0 SHL PUSH2 0xCB0 JUMP JUMPDEST DUP2 PUSH1 0x0 ADD MLOAD DUP2 PUSH1 0x0 ADD MLOAD SWAP4 POP SWAP4 POP POP POP SWAP1 SWAP2 JUMP JUMPDEST PUSH2 0x824 PUSH2 0xCB3 JUMP JUMPDEST PUSH2 0x82E PUSH1 0x0 PUSH2 0xD31 JUMP JUMPDEST JUMP JUMPDEST PUSH1 0x0 DUP1 PUSH1 0x0 SWAP1 SLOAD SWAP1 PUSH2 0x100 EXP SWAP1 DIV PUSH20 0xFFFFFFFFFFFFFFFFFFFFFFFFFFFFFFFFFFFFFFFF AND SWAP1 POP SWAP1 JUMP JUMPDEST PUSH2 0x86D PUSH8 0xD21563588DBE7083 PUSH1 0xC0 SHL PUSH2 0xCB0 JUMP JUMPDEST PUSH2 0x881 PUSH8 0x57CCC2C810D8718A PUSH1 0xC0 SHL PUSH2 0xCB0 JUMP JUMPDEST PUSH2 0x895 PUSH8 0x79FDC249F5E2A311 PUSH1 0xC0 SHL PUSH2 0xCB0 JUMP JUMPDEST PUSH32 0x0 PUSH20 0xFFFFFFFFFFFFFFFFFFFFFFFFFFFFFFFFFFFFFFFF AND PUSH4 0x23B872DD CALLER ADDRESS DUP5 PUSH1 0x40 MLOAD DUP5 PUSH4 0xFFFFFFFF AND PUSH1 0xE0 SHL DUP2 MSTORE PUSH1 0x4 ADD PUSH2 0x8F2 SWAP4 SWAP3 SWAP2 SWAP1 PUSH2 0x1214 JUMP JUMPDEST PUSH1 0x20 PUSH1 0x40 MLOAD DUP1 DUP4 SUB DUP2 PUSH1 0x0 DUP8 GAS CALL ISZERO DUP1 ISZERO PUSH2 0x911 JUMPI RETURNDATASIZE PUSH1 0x0 DUP1 RETURNDATACOPY RETURNDATASIZE PUSH1 0x0 REVERT JUMPDEST POP POP POP POP PUSH1 0x40 MLOAD RETURNDATASIZE PUSH1 0x1F NOT PUSH1 0x1F DUP3 ADD AND DUP3 ADD DUP1 PUSH1 0x40 MSTORE POP DUP2 ADD SWAP1 PUSH2 0x935 SWAP2 SWAP1 PUSH2 0x119F JUMP JUMPDEST POP PUSH2 0x94A PUSH8 0xE9701D5E436687CB PUSH1 0xC0 SHL PUSH2 0xCB0 JUMP JUMPDEST PUSH2 0x95E PUSH8 0x4B17BB080130E27E PUSH1 0xC0 SHL PUSH2 0xCB0 JUMP JUMPDEST PUSH1 0x0 PUSH1 0x1 PUSH1 0x0 CALLER PUSH20 0xFFFFFFFFFFFFFFFFFFFFFFFFFFFFFFFFFFFFFFFF AND PUSH20 0xFFFFFFFFFFFFFFFFFFFFFFFFFFFFFFFFFFFFFFFF AND DUP2 MSTORE PUSH1 0x20 ADD SWAP1 DUP2 MSTORE PUSH1 0x20 ADD PUSH1 0x0 KECCAK256 SLOAD SWAP1 POP PUSH2 0x9B6 PUSH8 0xC39D6DFE4AF35789 PUSH1 0xC0 SHL PUSH2 0xCB0 JUMP JUMPDEST PUSH2 0x9CA PUSH8 0x6D283761A325887B PUSH1 0xC0 SHL PUSH2 0xCB0 JUMP JUMPDEST PUSH1 0x0 DUP2 SUB PUSH2 0xB19 JUMPI PUSH2 0x9E6 PUSH8 0x367806BC0AAD4780 PUSH1 0xC0 SHL PUSH2 0xCB0 JUMP JUMPDEST PUSH2 0x9FA PUSH8 0xE03495509359B99D PUSH1 0xC0 SHL PUSH2 0xCB0 JUMP JUMPDEST PUSH2 0xA0E PUSH8 0x7423E45589D1E43A PUSH1 0xC0 SHL PUSH2 0xCB0 JUMP JUMPDEST PUSH1 0x2 PUSH1 0x40 MLOAD DUP1 PUSH1 0x40 ADD PUSH1 0x40 MSTORE DUP1 CALLER PUSH20 0xFFFFFFFFFFFFFFFFFFFFFFFFFFFFFFFFFFFFFFFF AND DUP2 MSTORE PUSH1 0x20 ADD DUP5 DUP2 MSTORE POP SWAP1 DUP1 PUSH1 0x1 DUP2 SLOAD ADD DUP1 DUP3 SSTORE DUP1 SWAP2 POP POP PUSH1 0x1 SWAP1 SUB SWAP1 PUSH1 0x0 MSTORE PUSH1 0x20 PUSH1 0x0 KECCAK256 SWAP1 PUSH1 0x2 MUL ADD PUSH1 0x0 SWAP1 SWAP2 SWAP1 SWAP2 SWAP1 SWAP2 POP PUSH1 0x0 DUP3 ADD MLOAD DUP2 PUSH1 0x0 ADD PUSH1 0x0 PUSH2 0x100 EXP DUP2 SLOAD DUP2 PUSH20 0xFFFFFFFFFFFFFFFFFFFFFFFFFFFFFFFFFFFFFFFF MUL NOT AND SWAP1 DUP4 PUSH20 0xFFFFFFFFFFFFFFFFFFFFFFFFFFFFFFFFFFFFFFFF AND MUL OR SWAP1 SSTORE POP PUSH1 0x20 DUP3 ADD MLOAD DUP2 PUSH1 0x1 ADD SSTORE POP POP PUSH2 0xACB PUSH8 0x3F1EE8FE79263C91 PUSH1 0xC0 SHL PUSH2 0xCB0 JUMP JUMPDEST PUSH1 0x2 DUP1 SLOAD SWAP1 POP PUSH1 0x1 PUSH1 0x0 CALLER PUSH20 0xFFFFFFFFFFFFFFFFFFFFFFFFFFFFFFFFFFFFFFFF AND PUSH20 0xFFFFFFFFFFFFFFFFFFFFFFFFFFFFFFFFFFFFFFFF AND DUP2 MSTORE PUSH1 0x20 ADD SWAP1 DUP2 MSTORE PUSH1 0x20 ADD PUSH1 0x0 KECCAK256 DUP2 SWAP1 SSTORE POP PUSH2 0xB8A JUMP JUMPDEST PUSH2 0xB2D PUSH8 0x5854579D6188DD1C PUSH1 0xC0 SHL PUSH2 0xCB0 JUMP JUMPDEST PUSH2 0xB41 PUSH8 0xD6346F270F0DF6C2 PUSH1 0xC0 SHL PUSH2 0xCB0 JUMP JUMPDEST DUP2 PUSH1 0x2 PUSH1 0x1 DUP4 PUSH2 0xB51 SWAP2 SWAP1 PUSH2 0x1072 JUMP JUMPDEST DUP2 SLOAD DUP2 LT PUSH2 0xB62 JUMPI PUSH2 0xB61 PUSH2 0x10A6 JUMP JUMPDEST JUMPDEST SWAP1 PUSH1 0x0 MSTORE PUSH1 0x20 PUSH1 0x0 KECCAK256 SWAP1 PUSH1 0x2 MUL ADD PUSH1 0x1 ADD PUSH1 0x0 DUP3 DUP3 SLOAD PUSH2 0xB82 SWAP2 SWAP1 PUSH2 0x124B JUMP JUMPDEST SWAP3 POP POP DUP2 SWAP1 SSTORE POP JUMPDEST PUSH2 0xB9E PUSH8 0x222C53A21C217E15 PUSH1 0xC0 SHL PUSH2 0xCB0 JUMP JUMPDEST PUSH2 0xBB2 PUSH8 0xAA8FBE04BE298931 PUSH1 0xC0 SHL PUSH2 0xCB0 JUMP JUMPDEST PUSH32 0x8752A472E571A816AEA92EEC8DAE9BAF628E840F4929FBCC2D155E6233FF68A7 CALLER ADDRESS DUP5 PUSH1 0x40 MLOAD PUSH2 0xBE5 SWAP4 SWAP3 SWAP2 SWAP1 PUSH2 0x1214 JUMP JUMPDEST PUSH1 0x40 MLOAD DUP1 SWAP2 SUB SWAP1 LOG1 POP POP JUMP JUMPDEST PUSH1 0x1 PUSH1 0x20 MSTORE DUP1 PUSH1 0x0 MSTORE PUSH1 0x40 PUSH1 0x0 KECCAK256 PUSH1 0x0 SWAP2 POP SWAP1 POP SLOAD DUP2 JUMP JUMPDEST PUSH2 0xC11 PUSH2 0xCB3 JUMP JUMPDEST PUSH1 0x0 PUSH20 0xFFFFFFFFFFFFFFFFFFFFFFFFFFFFFFFFFFFFFFFF AND DUP2 PUSH20 0xFFFFFFFFFFFFFFFFFFFFFFFFFFFFFFFFFFFFFFFF AND SUB PUSH2 0xC80 JUMPI PUSH1 0x40 MLOAD PUSH32 0x8C379A000000000000000000000000000000000000000000000000000000000 DUP2 MSTORE PUSH1 0x4 ADD PUSH2 0xC77 SWAP1 PUSH2 0x12F1 JUMP JUMPDEST PUSH1 0x40 MLOAD DUP1 SWAP2 SUB SWAP1 REVERT JUMPDEST PUSH2 0xC89 DUP2 PUSH2 0xD31 JUMP JUMPDEST POP JUMP JUMPDEST PUSH32 0x0 DUP2 JUMP JUMPDEST POP JUMP JUMPDEST PUSH2 0xCBB PUSH2 0xDF5 JUMP JUMPDEST PUSH20 0xFFFFFFFFFFFFFFFFFFFFFFFFFFFFFFFFFFFFFFFF AND PUSH2 0xCD9 PUSH2 0x830 JUMP JUMPDEST PUSH20 0xFFFFFFFFFFFFFFFFFFFFFFFFFFFFFFFFFFFFFFFF AND EQ PUSH2 0xD2F JUMPI PUSH1 0x40 MLOAD PUSH32 0x8C379A000000000000000000000000000000000000000000000000000000000 DUP2 MSTORE PUSH1 0x4 ADD PUSH2 0xD26 SWAP1 PUSH2 0x135D JUMP JUMPDEST PUSH1 0x40 MLOAD DUP1 SWAP2 SUB SWAP1 REVERT JUMPDEST JUMP JUMPDEST PUSH1 0x0 DUP1 PUSH1 0x0 SWAP1 SLOAD SWAP1 PUSH2 0x100 EXP SWAP1 DIV PUSH20 0xFFFFFFFFFFFFFFFFFFFFFFFFFFFFFFFFFFFFFFFF AND SWAP1 POP DUP2 PUSH1 0x0 DUP1 PUSH2 0x100 EXP DUP2 SLOAD DUP2 PUSH20 0xFFFFFFFFFFFFFFFFFFFFFFFFFFFFFFFFFFFFFFFF MUL NOT AND SWAP1 DUP4 PUSH20 0xFFFFFFFFFFFFFFFFFFFFFFFFFFFFFFFFFFFFFFFF AND MUL OR SWAP1 SSTORE POP DUP2 PUSH20 0xFFFFFFFFFFFFFFFFFFFFFFFFFFFFFFFFFFFFFFFF AND DUP2 PUSH20 0xFFFFFFFFFFFFFFFFFFFFFFFFFFFFFFFFFFFFFFFF AND PUSH32 0x8BE0079C531659141344CD1FD0A4F28419497F9722A3DAAFE3B4186F6B6457E0 PUSH1 0x40 MLOAD PUSH1 0x40 MLOAD DUP1 SWAP2 SUB SWAP1 LOG3 POP POP JUMP JUMPDEST PUSH1 0x0 CALLER SWAP1 POP SWAP1 JUMP JUMPDEST PUSH1 0x40 MLOAD DUP1 PUSH1 0x40 ADD PUSH1 0x40 MSTORE DUP1 PUSH1 0x0 PUSH20 0xFFFFFFFFFFFFFFFFFFFFFFFFFFFFFFFFFFFFFFFF AND DUP2 MSTORE PUSH1 0x20 ADD PUSH1 0x0 DUP2 MSTORE POP SWAP1 JUMP JUMPDEST PUSH1 0x0 DUP1 REVERT JUMPDEST PUSH1 0x0 DUP2 SWAP1 POP SWAP2 SWAP1 POP JUMP JUMPDEST PUSH2 0xE45 DUP2 PUSH2 0xE32 JUMP JUMPDEST DUP2 EQ PUSH2 0xE50 JUMPI PUSH1 0x0 DUP1 REVERT JUMPDEST POP JUMP JUMPDEST PUSH1 0x0 DUP2 CALLDATALOAD SWAP1 POP PUSH2 0xE62 DUP2 PUSH2 0xE3C JUMP JUMPDEST SWAP3 SWAP2 POP POP JUMP JUMPDEST PUSH1 0x0 PUSH1 0x20 DUP3 DUP5 SUB SLT ISZERO PUSH2 0xE7E JUMPI PUSH2 0xE7D PUSH2 0xE2D JUMP JUMPDEST JUMPDEST PUSH1 0x0 PUSH2 0xE8C DUP5 DUP3 DUP6 ADD PUSH2 0xE53 JUMP JUMPDEST SWAP2 POP POP SWAP3 SWAP2 POP POP JUMP JUMPDEST PUSH1 0x0 PUSH20 0xFFFFFFFFFFFFFFFFFFFFFFFFFFFFFFFFFFFFFFFF DUP3 AND SWAP1 POP SWAP2 SWAP1 POP JUMP JUMPDEST PUSH1 0x0 PUSH2 0xEC0 DUP3 PUSH2 0xE95 JUMP JUMPDEST SWAP1 POP SWAP2 SWAP1 POP JUMP JUMPDEST PUSH2 0xED0 DUP2 PUSH2 0xEB5 JUMP JUMPDEST DUP3 MSTORE POP POP JUMP JUMPDEST PUSH2 0xEDF DUP2 PUSH2 0xE32 JUMP JUMPDEST DUP3 MSTORE POP POP JUMP JUMPDEST PUSH1 0x0 PUSH1 0x40 DUP3 ADD SWAP1 POP PUSH2 0xEFA PUSH1 0x0 DUP4 ADD DUP6 PUSH2 0xEC7 JUMP JUMPDEST PUSH2 0xF07 PUSH1 0x20 DUP4 ADD DUP5 PUSH2 0xED6 JUMP JUMPDEST SWAP4 SWAP3 POP POP POP JUMP JUMPDEST PUSH1 0x0 PUSH1 0x40 DUP3 ADD SWAP1 POP PUSH2 0xF23 PUSH1 0x0 DUP4 ADD DUP6 PUSH2 0xEC7 JUMP JUMPDEST PUSH2 0xF30 PUSH1 0x20 DUP4 ADD DUP5 PUSH2 0xEC7 JUMP JUMPDEST SWAP4 SWAP3 POP POP POP JUMP JUMPDEST PUSH1 0x0 PUSH1 0x20 DUP3 ADD SWAP1 POP PUSH2 0xF4C PUSH1 0x0 DUP4 ADD DUP5 PUSH2 0xEC7 JUMP JUMPDEST SWAP3 SWAP2 POP POP JUMP JUMPDEST PUSH2 0xF5B DUP2 PUSH2 0xEB5 JUMP JUMPDEST DUP2 EQ PUSH2 0xF66 JUMPI PUSH1 0x0 DUP1 REVERT JUMPDEST POP JUMP JUMPDEST PUSH1 0x0 DUP2 CALLDATALOAD SWAP1 POP PUSH2 0xF78 DUP2 PUSH2 0xF52 JUMP JUMPDEST SWAP3 SWAP2 POP POP JUMP JUMPDEST PUSH1 0x0 PUSH1 0x20 DUP3 DUP5 SUB SLT ISZERO PUSH2 0xF94 JUMPI PUSH2 0xF93 PUSH2 0xE2D JUMP JUMPDEST JUMPDEST PUSH1 0x0 PUSH2 0xFA2 DUP5 DUP3 DUP6 ADD PUSH2 0xF69 JUMP JUMPDEST SWAP2 POP POP SWAP3 SWAP2 POP POP JUMP JUMPDEST PUSH1 0x0 PUSH1 0x20 DUP3 ADD SWAP1 POP PUSH2 0xFC0 PUSH1 0x0 DUP4 ADD DUP5 PUSH2 0xED6 JUMP JUMPDEST SWAP3 SWAP2 POP POP JUMP JUMPDEST PUSH1 0x0 DUP3 DUP3 MSTORE PUSH1 0x20 DUP3 ADD SWAP1 POP SWAP3 SWAP2 POP POP JUMP JUMPDEST PUSH32 0x77697468647261773A206E6F74206465706F7369746564207965740000000000 PUSH1 0x0 DUP3 ADD MSTORE POP JUMP JUMPDEST PUSH1 0x0 PUSH2 0x100D PUSH1 0x1B DUP4 PUSH2 0xFC6 JUMP JUMPDEST SWAP2 POP PUSH2 0x1018 DUP3 PUSH2 0xFD7 JUMP JUMPDEST PUSH1 0x20 DUP3 ADD SWAP1 POP SWAP2 SWAP1 POP JUMP JUMPDEST PUSH1 0x0 PUSH1 0x20 DUP3 ADD SWAP1 POP DUP2 DUP2 SUB PUSH1 0x0 DUP4 ADD MSTORE PUSH2 0x103C DUP2 PUSH2 0x1000 JUMP JUMPDEST SWAP1 POP SWAP2 SWAP1 POP JUMP JUMPDEST PUSH32 0x4E487B7100000000000000000000000000000000000000000000000000000000 PUSH1 0x0 MSTORE PUSH1 0x11 PUSH1 0x4 MSTORE PUSH1 0x24 PUSH1 0x0 REVERT JUMPDEST PUSH1 0x0 PUSH2 0x107D DUP3 PUSH2 0xE32 JUMP JUMPDEST SWAP2 POP PUSH2 0x1088 DUP4 PUSH2 0xE32 JUMP JUMPDEST SWAP3 POP DUP3 DUP3 SUB SWAP1 POP DUP2 DUP2 GT ISZERO PUSH2 0x10A0 JUMPI PUSH2 0x109F PUSH2 0x1043 JUMP JUMPDEST JUMPDEST SWAP3 SWAP2 POP POP JUMP JUMPDEST PUSH32 0x4E487B7100000000000000000000000000000000000000000000000000000000 PUSH1 0x0 MSTORE PUSH1 0x32 PUSH1 0x4 MSTORE PUSH1 0x24 PUSH1 0x0 REVERT JUMPDEST PUSH32 0x57697468647261773A206E6F7420656E6F75676820746F6B656E7320746F2077 PUSH1 0x0 DUP3 ADD MSTORE PUSH32 0x6974686472617700000000000000000000000000000000000000000000000000 PUSH1 0x20 DUP3 ADD MSTORE POP JUMP JUMPDEST PUSH1 0x0 PUSH2 0x1131 PUSH1 0x27 DUP4 PUSH2 0xFC6 JUMP JUMPDEST SWAP2 POP PUSH2 0x113C DUP3 PUSH2 0x10D5 JUMP JUMPDEST PUSH1 0x40 DUP3 ADD SWAP1 POP SWAP2 SWAP1 POP JUMP JUMPDEST PUSH1 0x0 PUSH1 0x20 DUP3 ADD SWAP1 POP DUP2 DUP2 SUB PUSH1 0x0 DUP4 ADD MSTORE PUSH2 0x1160 DUP2 PUSH2 0x1124 JUMP JUMPDEST SWAP1 POP SWAP2 SWAP1 POP JUMP JUMPDEST PUSH1 0x0 DUP2 ISZERO ISZERO SWAP1 POP SWAP2 SWAP1 POP JUMP JUMPDEST PUSH2 0x117C DUP2 PUSH2 0x1167 JUMP JUMPDEST DUP2 EQ PUSH2 0x1187 JUMPI PUSH1 0x0 DUP1 REVERT JUMPDEST POP JUMP JUMPDEST PUSH1 0x0 DUP2 MLOAD SWAP1 POP PUSH2 0x1199 DUP2 PUSH2 0x1173 JUMP JUMPDEST SWAP3 SWAP2 POP POP JUMP JUMPDEST PUSH1 0x0 PUSH1 0x20 DUP3 DUP5 SUB SLT ISZERO PUSH2 0x11B5 JUMPI PUSH2 0x11B4 PUSH2 0xE2D JUMP JUMPDEST JUMPDEST PUSH1 0x0 PUSH2 0x11C3 DUP5 DUP3 DUP6 ADD PUSH2 0x118A JUMP JUMPDEST SWAP2 POP POP SWAP3 SWAP2 POP POP JUMP JUMPDEST PUSH1 0x0 PUSH2 0x11D7 DUP3 PUSH2 0xE32 JUMP JUMPDEST SWAP2 POP PUSH32 0xFFFFFFFFFFFFFFFFFFFFFFFFFFFFFFFFFFFFFFFFFFFFFFFFFFFFFFFFFFFFFFFF DUP3 SUB PUSH2 0x1209 JUMPI PUSH2 0x1208 PUSH2 0x1043 JUMP JUMPDEST JUMPDEST PUSH1 0x1 DUP3 ADD SWAP1 POP SWAP2 SWAP1 POP JUMP JUMPDEST PUSH1 0x0 PUSH1 0x60 DUP3 ADD SWAP1 POP PUSH2 0x1229 PUSH1 0x0 DUP4 ADD DUP7 PUSH2 0xEC7 JUMP JUMPDEST PUSH2 0x1236 PUSH1 0x20 DUP4 ADD DUP6 PUSH2 0xEC7 JUMP JUMPDEST PUSH2 0x1243 PUSH1 0x40 DUP4 ADD DUP5 PUSH2 0xED6 JUMP JUMPDEST SWAP5 SWAP4 POP POP POP POP JUMP JUMPDEST PUSH1 0x0 PUSH2 0x1256 DUP3 PUSH2 0xE32 JUMP JUMPDEST SWAP2 POP PUSH2 0x1261 DUP4 PUSH2 0xE32 JUMP JUMPDEST SWAP3 POP DUP3 DUP3 ADD SWAP1 POP DUP1 DUP3 GT ISZERO PUSH2 0x1279 JUMPI PUSH2 0x1278 PUSH2 0x1043 JUMP JUMPDEST JUMPDEST SWAP3 SWAP2 POP POP JUMP JUMPDEST PUSH32 0x4F776E61626C653A206E6577206F776E657220697320746865207A65726F2061 PUSH1 0x0 DUP3 ADD MSTORE PUSH32 0x6464726573730000000000000000000000000000000000000000000000000000 PUSH1 0x20 DUP3 ADD MSTORE POP JUMP JUMPDEST PUSH1 0x0 PUSH2 0x12DB PUSH1 0x26 DUP4 PUSH2 0xFC6 JUMP JUMPDEST SWAP2 POP PUSH2 0x12E6 DUP3 PUSH2 0x127F JUMP JUMPDEST PUSH1 0x40 DUP3 ADD SWAP1 POP SWAP2 SWAP1 POP JUMP JUMPDEST PUSH1 0x0 PUSH1 0x20 DUP3 ADD SWAP1 POP DUP2 DUP2 SUB PUSH1 0x0 DUP4 ADD MSTORE PUSH2 0x130A DUP2 PUSH2 0x12CE JUMP JUMPDEST SWAP1 POP SWAP2 SWAP1 POP JUMP JUMPDEST PUSH32 0x4F776E61626C653A2063616C6C6572206973206E6F7420746865206F776E6572 PUSH1 0x0 DUP3 ADD MSTORE POP JUMP JUMPDEST PUSH1 0x0 PUSH2 0x1347 PUSH1 0x20 DUP4 PUSH2 0xFC6 JUMP JUMPDEST SWAP2 POP PUSH2 0x1352 DUP3 PUSH2 0x1311 JUMP JUMPDEST PUSH1 0x20 DUP3 ADD SWAP1 POP SWAP2 SWAP1 POP JUMP JUMPDEST PUSH1 0x0 PUSH1 0x20 DUP3 ADD SWAP1 POP DUP2 DUP2 SUB PUSH1 0x0 DUP4 ADD MSTORE PUSH2 0x1376 DUP2 PUSH2 0x133A JUMP JUMPDEST SWAP1 POP SWAP2 SWAP1 POP JUMP INVALID LOG2 PUSH5 0x6970667358 0x22 SLT KECCAK256 SDIV 0xDC LOG2 DIV RETURNDATASIZE SGT 0xCD 0xA5 0xB0 0xBF 0xB9 0xAE 0x1F SWAP2 0xDA 0xE1 0xEF 0xFC 0xC 0x2A 0xB6 POP 0xB0 0xB0 CALLDATASIZE GT STATICCALL DUP14 0x24 0xB7 CALLER 0x26 PUSH5 0x736F6C6343 STOP ADDMOD LT STOP CALLER "},"gasEstimates":{"creation":{"codeDepositCost":"1008600","executionCost":"infinite","totalCost":"infinite"},"external":{"deposit(uint256)":"infinite","max()":"infinite","owner()":"2522","renounceOwnership()":"30465","token()":"infinite","transferOwnership(address)":"30810","userIndex(address)":"2858","userInfo(uint256)":"infinite","withdraw(uint256)":"infinite"},"internal":{"c_c62299d7(bytes8)":"11","c_falsec62299d7(bytes8)":"infinite","c_truec62299d7(bytes8)":"infinite"}},"methodIdentifiers":{"deposit(uint256)":"b6b55f25","max()":"6ac5db19","owner()":"8da5cb5b","renounceOwnership()":"715018a6","token()":"fc0c546a","transferOwnership(address)":"f2fde38b","userIndex(address)":"c96679fe","userInfo(uint256)":"51d70bc4","withdraw(uint256)":"2e1a7d4d"}},"storageLayout":{"storage":[{"astId":7,"contract":"contracts/Vault.sol:Vault","label":"_owner","offset":0,"slot":"0","type":"t_address"},{"astId":293,"contract":"contracts/Vault.sol:Vault","label":"userIndex","offset":0,"slot":"1","type":"t_mapping(t_address,t_uint256)"},{"astId":297,"contract":"contracts/Vault.sol:Vault","label":"userInfo","offset":0,"slot":"2","type":"t_array(t_struct(UserInfo)289_storage)dyn_storage"}],"types":{"t_address":{"encoding":"inplace","label":"address","numberOfBytes":"20"},"t_array(t_struct(UserInfo)289_storage)dyn_storage":{"base":"t_struct(UserInfo)289_storage","encoding":"dynamic_array","label":"struct Vault.UserInfo[]","numberOfBytes":"32"},"t_mapping(t_address,t_uint256)":{"encoding":"mapping","key":"t_address","label":"mapping(address => uint256)","numberOfBytes":"32","value":"t_uint256"},"t_struct(UserInfo)289_storage":{"encoding":"inplace","label":"struct Vault.UserInfo","members":[{"astId":286,"contract":"contracts/Vault.sol:Vault","label":"wallet","offset":0,"slot":"0","type":"t_address"},{"astId":288,"contract":"contracts/Vault.sol:Vault","label":"amount","offset":0,"slot":"1","type":"t_uint256"}],"numberOfBytes":"64"},"t_uint256":{"encoding":"inplace","label":"uint256","numberOfBytes":"32"}}},"userdoc":{"kind":"user","methods":{},"version":1}}}}