{
  "_format": "hh-sol-artifact-1",
  "contractName": "Vault",
  "sourceName": "contracts/Vault.sol",
  "abi": [
    {
      "inputs": [
        {
          "internalType": "address",
          "name": "_token",
          "type": "address"
        }
      ],
      "stateMutability": "nonpayable",
      "type": "constructor"
    },
    {
      "anonymous": false,
      "inputs": [
        {
          "indexed": false,
          "internalType": "address",
          "name": "",
          "type": "address"
        },
        {
          "indexed": false,
          "internalType": "address",
          "name": "",
          "type": "address"
        },
        {
          "indexed": false,
          "internalType": "uint256",
          "name": "",
          "type": "uint256"
        }
      ],
      "name": "Deposited",
      "type": "event"
    },
    {
      "anonymous": false,
      "inputs": [
        {
          "indexed": true,
          "internalType": "address",
          "name": "previousOwner",
          "type": "address"
        },
        {
          "indexed": true,
          "internalType": "address",
          "name": "newOwner",
          "type": "address"
        }
      ],
      "name": "OwnershipTransferred",
      "type": "event"
    },
    {
      "anonymous": false,
      "inputs": [
        {
          "indexed": false,
          "internalType": "address",
          "name": "",
          "type": "address"
        },
        {
          "indexed": false,
          "internalType": "uint256",
          "name": "",
          "type": "uint256"
        }
      ],
      "name": "Withdrawn",
      "type": "event"
    },
    {
      "inputs": [
        {
          "internalType": "uint256",
          "name": "_amount",
          "type": "uint256"
        }
      ],
      "name": "deposit",
      "outputs": [],
      "stateMutability": "nonpayable",
      "type": "function"
    },
    {
      "inputs": [],
      "name": "max",
      "outputs": [
        {
          "internalType": "address",
          "name": "",
          "type": "address"
        },
        {
          "internalType": "address",
          "name": "",
          "type": "address"
        }
      ],
      "stateMutability": "view",
      "type": "function"
    },
    {
      "inputs": [],
      "name": "owner",
      "outputs": [
        {
          "internalType": "address",
          "name": "",
          "type": "address"
        }
      ],
      "stateMutability": "view",
      "type": "function"
    },
    {
      "inputs": [],
      "name": "renounceOwnership",
      "outputs": [],
      "stateMutability": "nonpayable",
      "type": "function"
    },
    {
      "inputs": [],
      "name": "token",
      "outputs": [
        {
          "internalType": "address",
          "name": "",
          "type": "address"
        }
      ],
      "stateMutability": "view",
      "type": "function"
    },
    {
      "inputs": [
        {
          "internalType": "address",
          "name": "newOwner",
          "type": "address"
        }
      ],
      "name": "transferOwnership",
      "outputs": [],
      "stateMutability": "nonpayable",
      "type": "function"
    },
    {
      "inputs": [
        {
          "internalType": "address",
          "name": "",
          "type": "address"
        }
      ],
      "name": "userIndex",
      "outputs": [
        {
          "internalType": "uint256",
          "name": "",
          "type": "uint256"
        }
      ],
      "stateMutability": "view",
      "type": "function"
    },
    {
      "inputs": [
        {
          "internalType": "uint256",
          "name": "",
          "type": "uint256"
        }
      ],
      "name": "userInfo",
      "outputs": [
        {
          "internalType": "address",
          "name": "wallet",
          "type": "address"
        },
        {
          "internalType": "uint256",
          "name": "amount",
          "type": "uint256"
        }
      ],
      "stateMutability": "view",
      "type": "function"
    },
    {
      "inputs": [
        {
          "internalType": "uint256",
          "name": "_amount",
          "type": "uint256"
        }
      ],
      "name": "withdraw",
      "outputs": [],
      "stateMutability": "nonpayable",
      "type": "function"
    }
  ],
  "bytecode": "0x60a06040523480156200001157600080fd5b506040516200161238038062001612833981810160405281019062000037919062000203565b620000576200004b620000ca60201b60201c565b620000d260201b60201c565b6200007367524c3371c2ae7b4860c01b6200019660201b60201c565b6200008f67b9e5f9c53bb9461460c01b6200019660201b60201c565b8073ffffffffffffffffffffffffffffffffffffffff1660808173ffffffffffffffffffffffffffffffffffffffff16815250505062000235565b600033905090565b60008060009054906101000a900473ffffffffffffffffffffffffffffffffffffffff169050816000806101000a81548173ffffffffffffffffffffffffffffffffffffffff021916908373ffffffffffffffffffffffffffffffffffffffff1602179055508173ffffffffffffffffffffffffffffffffffffffff168173ffffffffffffffffffffffffffffffffffffffff167f8be0079c531659141344cd1fd0a4f28419497f9722a3daafe3b4186f6b6457e060405160405180910390a35050565b50565b600080fd5b600073ffffffffffffffffffffffffffffffffffffffff82169050919050565b6000620001cb826200019e565b9050919050565b620001dd81620001be565b8114620001e957600080fd5b50565b600081519050620001fd81620001d2565b92915050565b6000602082840312156200021c576200021b62000199565b5b60006200022c84828501620001ec565b91505092915050565b6080516113b36200025f6000396000818161040f015281816108970152610c8e01526113b36000f3fe608060405234801561001057600080fd5b50600436106100935760003560e01c80638da5cb5b116100665780638da5cb5b1461010e578063b6b55f251461012c578063c96679fe14610148578063f2fde38b14610178578063fc0c546a1461019457610093565b80632e1a7d4d1461009857806351d70bc4146100b45780636ac5db19146100e5578063715018a614610104575b600080fd5b6100b260048036038101906100ad9190610e68565b6101b2565b005b6100ce60048036038101906100c99190610e68565b610512565b6040516100dc929190610ee5565b60405180910390f35b6100ed610566565b6040516100fb929190610f0e565b60405180910390f35b61010c61081c565b005b610116610830565b6040516101239190610f37565b60405180910390f35b61014660048036038101906101419190610e68565b610859565b005b610162600480360381019061015d9190610f7e565b610bf1565b60405161016f9190610fab565b60405180910390f35b610192600480360381019061018d9190610f7e565b610c09565b005b61019c610c8c565b6040516101a99190610f37565b60405180910390f35b6101c6673c3d1f0b28e6825b60c01b610cb0565b6101da6781853cfb9dba18aa60c01b610cb0565b6101ee67ec13bd7ef14353ef60c01b610cb0565b6000600160003373ffffffffffffffffffffffffffffffffffffffff1673ffffffffffffffffffffffffffffffffffffffff16815260200190815260200160002054905061024667c59c06800872803060c01b610cb0565b61025a67c718a20b5c46e12460c01b610cb0565b61026e67ae35b2da8639e95460c01b610cb0565b600081036102b1576040517f08c379a00000000000000000000000000000000000000000000000000000000081526004016102a890611023565b60405180910390fd5b6102c567cf854689c1a3159e60c01b610cb0565b6102d9670f6324415a30537b60c01b610cb0565b6102ed673d52113df375fa5d60c01b610cb0565b600060026001836102fe9190611072565b8154811061030f5761030e6110a6565b5b9060005260206000209060020201905061033367de41abcba3e62fd560c01b610cb0565b610347676092391e859e7d2560c01b610cb0565b61035b67919f4949413c8f6560c01b610cb0565b82816001015410156103a2576040517f08c379a000000000000000000000000000000000000000000000000000000000815260040161039990611147565b60405180910390fd5b6103b6677c66c358ef810a0a60c01b610cb0565b6103ca67fb94a3356e50c14060c01b610cb0565b828160010160008282546103de9190611072565b925050819055506103f967328ffca30731bd4b60c01b610cb0565b61040d679c653ffbdc502e0f60c01b610cb0565b7f000000000000000000000000000000000000000000000000000000000000000073ffffffffffffffffffffffffffffffffffffffff1663a9059cbb33856040518363ffffffff1660e01b8152600401610468929190610ee5565b6020604051808303816000875af1158015610487573d6000803e3d6000fd5b505050506040513d601f19601f820116820180604052508101906104ab919061119f565b506104c0670c9930e4654ebe9060c01b610cb0565b6104d46781a4173d618c3bcb60c01b610cb0565b7f7084f5476618d8e60b11ef0d7d3f06914655adb8793e28ff7f018d4c76d505d53384604051610505929190610ee5565b60405180910390a1505050565b6002818154811061052257600080fd5b90600052602060002090600202016000915090508060000160009054906101000a900473ffffffffffffffffffffffffffffffffffffffff16908060010154905082565b60008061057d67a71471a4f9996e8f60c01b610cb0565b61059167cec79149333f05b060c01b610cb0565b6105a567e26c4ed4c5c4e70260c01b610cb0565b6105ad610dfd565b6105c1679a78281bb1431d7260c01b610cb0565b6105d567c0f0e8449172483f60c01b610cb0565b6105dd610dfd565b6105f1674658fef52e2882cf60c01b610cb0565b610605675380d174bcdaea1a60c01b610cb0565b60005b6002805490508110156107df5761062967a9e80d0d39c9181160c01b610cb0565b61063d674e07f9c2c41fbe9960c01b610cb0565b600060028281548110610653576106526110a6565b5b90600052602060002090600202016040518060400160405290816000820160009054906101000a900473ffffffffffffffffffffffffffffffffffffffff1673ffffffffffffffffffffffffffffffffffffffff1673ffffffffffffffffffffffffffffffffffffffff16815260200160018201548152505090506106e267d32bebfdc04f2b9d60c01b610cb0565b6106f6672b5c4ea9292a95f560c01b610cb0565b83602001518160200151111561074d5761071a6773a7f0fe1265a2bc60c01b610cb0565b61072e67d23b74dbf6d7e5fc60c01b610cb0565b83925061074567bf390cc54659e77260c01b610cb0565b8093506107cb565b61076167642f20b443e9579c60c01b610cb0565b61077567c0f87aac0ff2c6c460c01b610cb0565b8260200151816020015111156107b557610799671a1d283eb4c8858860c01b610cb0565b6107ad67bca7e1eadbf71eef60c01b610cb0565b8092506107ca565b6107c9679fd37f906f2cae4260c01b610cb0565b5b5b5080806107d7906111cc565b915050610608565b506107f467f0e0bb299668ff7860c01b610cb0565b61080867ca7dcd2d667c91b260c01b610cb0565b816000015181600001519350935050509091565b610824610cb3565b61082e6000610d31565b565b60008060009054906101000a900473ffffffffffffffffffffffffffffffffffffffff16905090565b61086d67d21563588dbe708360c01b610cb0565b6108816757ccc2c810d8718a60c01b610cb0565b6108956779fdc249f5e2a31160c01b610cb0565b7f000000000000000000000000000000000000000000000000000000000000000073ffffffffffffffffffffffffffffffffffffffff166323b872dd3330846040518463ffffffff1660e01b81526004016108f293929190611214565b6020604051808303816000875af1158015610911573d6000803e3d6000fd5b505050506040513d601f19601f82011682018060405250810190610935919061119f565b5061094a67e9701d5e436687cb60c01b610cb0565b61095e674b17bb080130e27e60c01b610cb0565b6000600160003373ffffffffffffffffffffffffffffffffffffffff1673ffffffffffffffffffffffffffffffffffffffff1681526020019081526020016000205490506109b667c39d6dfe4af3578960c01b610cb0565b6109ca676d283761a325887b60c01b610cb0565b60008103610b19576109e667367806bc0aad478060c01b610cb0565b6109fa67e03495509359b99d60c01b610cb0565b610a0e677423e45589d1e43a60c01b610cb0565b600260405180604001604052803373ffffffffffffffffffffffffffffffffffffffff16815260200184815250908060018154018082558091505060019003906000526020600020906002020160009091909190915060008201518160000160006101000a81548173ffffffffffffffffffffffffffffffffffffffff021916908373ffffffffffffffffffffffffffffffffffffffff160217905550602082015181600101555050610acb673f1ee8fe79263c9160c01b610cb0565b600280549050600160003373ffffffffffffffffffffffffffffffffffffffff1673ffffffffffffffffffffffffffffffffffffffff16815260200190815260200160002081905550610b8a565b610b2d675854579d6188dd1c60c01b610cb0565b610b4167d6346f270f0df6c260c01b610cb0565b816002600183610b519190611072565b81548110610b6257610b616110a6565b5b90600052602060002090600202016001016000828254610b82919061124b565b925050819055505b610b9e67222c53a21c217e1560c01b610cb0565b610bb267aa8fbe04be29893160c01b610cb0565b7f8752a472e571a816aea92eec8dae9baf628e840f4929fbcc2d155e6233ff68a7333084604051610be593929190611214565b60405180910390a15050565b60016020528060005260406000206000915090505481565b610c11610cb3565b600073ffffffffffffffffffffffffffffffffffffffff168173ffffffffffffffffffffffffffffffffffffffff1603610c80576040517f08c379a0000000000000000000000000000000000000000000000000000000008152600401610c77906112f1565b60405180910390fd5b610c8981610d31565b50565b7f000000000000000000000000000000000000000000000000000000000000000081565b50565b610cbb610df5565b73ffffffffffffffffffffffffffffffffffffffff16610cd9610830565b73ffffffffffffffffffffffffffffffffffffffff1614610d2f576040517f08c379a0000000000000000000000000000000000000000000000000000000008152600401610d269061135d565b60405180910390fd5b565b60008060009054906101000a900473ffffffffffffffffffffffffffffffffffffffff169050816000806101000a81548173ffffffffffffffffffffffffffffffffffffffff021916908373ffffffffffffffffffffffffffffffffffffffff1602179055508173ffffffffffffffffffffffffffffffffffffffff168173ffffffffffffffffffffffffffffffffffffffff167f8be0079c531659141344cd1fd0a4f28419497f9722a3daafe3b4186f6b6457e060405160405180910390a35050565b600033905090565b6040518060400160405280600073ffffffffffffffffffffffffffffffffffffffff168152602001600081525090565b600080fd5b6000819050919050565b610e4581610e32565b8114610e5057600080fd5b50565b600081359050610e6281610e3c565b92915050565b600060208284031215610e7e57610e7d610e2d565b5b6000610e8c84828501610e53565b91505092915050565b600073ffffffffffffffffffffffffffffffffffffffff82169050919050565b6000610ec082610e95565b9050919050565b610ed081610eb5565b82525050565b610edf81610e32565b82525050565b6000604082019050610efa6000830185610ec7565b610f076020830184610ed6565b9392505050565b6000604082019050610f236000830185610ec7565b610f306020830184610ec7565b9392505050565b6000602082019050610f4c6000830184610ec7565b92915050565b610f5b81610eb5565b8114610f6657600080fd5b50565b600081359050610f7881610f52565b92915050565b600060208284031215610f9457610f93610e2d565b5b6000610fa284828501610f69565b91505092915050565b6000602082019050610fc06000830184610ed6565b92915050565b600082825260208201905092915050565b7f77697468647261773a206e6f74206465706f7369746564207965740000000000600082015250565b600061100d601b83610fc6565b915061101882610fd7565b602082019050919050565b6000602082019050818103600083015261103c81611000565b9050919050565b7f4e487b7100000000000000000000000000000000000000000000000000000000600052601160045260246000fd5b600061107d82610e32565b915061108883610e32565b92508282039050818111156110a05761109f611043565b5b92915050565b7f4e487b7100000000000000000000000000000000000000000000000000000000600052603260045260246000fd5b7f57697468647261773a206e6f7420656e6f75676820746f6b656e7320746f207760008201527f6974686472617700000000000000000000000000000000000000000000000000602082015250565b6000611131602783610fc6565b915061113c826110d5565b604082019050919050565b6000602082019050818103600083015261116081611124565b9050919050565b60008115159050919050565b61117c81611167565b811461118757600080fd5b50565b60008151905061119981611173565b92915050565b6000602082840312156111b5576111b4610e2d565b5b60006111c38482850161118a565b91505092915050565b60006111d782610e32565b91507fffffffffffffffffffffffffffffffffffffffffffffffffffffffffffffffff820361120957611208611043565b5b600182019050919050565b60006060820190506112296000830186610ec7565b6112366020830185610ec7565b6112436040830184610ed6565b949350505050565b600061125682610e32565b915061126183610e32565b925082820190508082111561127957611278611043565b5b92915050565b7f4f776e61626c653a206e6577206f776e657220697320746865207a65726f206160008201527f6464726573730000000000000000000000000000000000000000000000000000602082015250565b60006112db602683610fc6565b91506112e68261127f565b604082019050919050565b6000602082019050818103600083015261130a816112ce565b9050919050565b7f4f776e61626c653a2063616c6c6572206973206e6f7420746865206f776e6572600082015250565b6000611347602083610fc6565b915061135282611311565b602082019050919050565b600060208201905081810360008301526113768161133a565b905091905056fea264697066735822122005dca2043d13cda5b0bfb9ae1f91dae1effc0c2ab650b0b03611fa8d24b7332664736f6c63430008100033",
  "linkReferences": {},
  "deployedLinkReferences": {}
}